:040000008A110B282E
:10000800FE00030EF6000A08F7008A115F298A111C
:100018000D28F001F101F201F301F401F50183016A
:100028008A1116288A11CA208A118312031705100B
:1000380083120313A3018511831203178717243032
:1000480083120313A000A00B272883120317071B92
:100058002E282F283128F1013328F101F10A8312C3
:1000680003138515831203178713831203130717C6
:100078001F14143083120313A1007930A000A00BC1
:100088004328A10B4328000000308A113A218A1125
:100098008312031307131F10071471080319552837
:1000A800562857280517C9307502031C5C285D2897
:1000B8005E2885171014F3018030F20071080319C7
:1000C800662867286A2872082038F2007508A00098
:1000D80001300310A00DFF3E031D6D280310200DF5
:1000E800FC390138F3007508A00006300310A00C95
:1000F800FF3E031D7A2803302005A1007408A200E2
:1001080001300310A20DFF3E031D85280310220DA8
:100118000C3921047204F200941683160313141088
:10012800831203131308F00012119101720893004F
:10013800121583160313141CA228A3289D288312C2
:1001480003139412941683160313141083120313C3
:100158001308F00012119101730893001215831609
:100168000313141CB828B928B32883120313941254
:1001780023080319C028C128BC28831203170514B3
:1001880064006300000019288A110B2803308316C5
:10019800031788000330831603138500831603179B
:1001A8008901831603138601811710308700831293
:1001B80003138501860187018515831603130F1024
:1001C8000F088F3930388F009F179F121F12831224
:1001D80003131F083F3940389F001F109401141261
:1001E8001408F03903389400831603139413141772
:1001F80083120313920191011208FC39023892000C
:10020800EA30831603139200831203131215831224
:10021800031787138712071207150708FC390138D7
:10022800870089128316031705148312031390019C
:100238003030900485308F00ED308E008312031724
:1002480005100508E1390438850083160313811564
:100258000730810464008B010B17831603138C018C
:100268000C14831203138C018B170800FA007A0808
:100278000F39F800F80DF80D831203131F087806DC
:10028800C33978069F000730F9007D30F800F80B75
:100298004B29F90B4B29831203139F149F185529D7
:1002A80056295229831603131E08F50083120313D7
:1002B8001E08F40008008B13831203130C1C652915
:1002C8006629712910100C10071005138513853045
:1002D8008F00ED308E00A301A30A8B1777088A00E0
:0A02E800760E8300FE0E7E0E090064
:04400E00F420FF3F5C
:00000001FF
